:020000040800F2
:10000000C0040020010100089D130008950D0008A0
:10001000E11200088D0A0008F72200080000000025
:10002000000000000000000000000000AD18000803
:100030007D0B00080000000069180008F51A000890
:100040001B0100081B0100081B0100081B01000820
:100050001B0100081B0100081B0100081B01000810
:100060001B0100081B0100081B0100081B01000800
:100070001B0100081B0100081B0100081B010008F0
:100080001B0100081B0100081B0100081B010008E0
:100090001B0100081B0100081B0100081B010008D0
:1000A0001B010008991D00081B0100081B01000826
:1000B0001B010008B91D0008D51D00081B01000820
:1000C0001B0100081B0100081B0100081B010008A0
:1000D0001B0100081B0100081B0100082122000869
:1000E0001B0100081B0100081B010008DFF80CD0F1
:1000F00000F034FC0048004777420008C0040020AC
:100100000648804706480047FEE7FEE7FEE7FEE7B1
:10011000FEE7FEE7FEE7FEE7FEE7FEE7F91A000866
:10012000ED0000082DE9F0410024061B254671F181
:10013000000605DA01240027D0EB070067EB010178
:10014000161E73F1000605DA0027D2EB070201251F
:1001500067EB030300F004FB86460E4617469C46F9
:10016000AC4204D00025D0EB050E65EB010624B1AE
:100170000020D2EB000760EB030C704631463A4694
:100180006346BDE8F081D2B201E000F8012B491EC0
:10019000FBD270470022F6E710B513460A46044624
:1001A0001946FFF7F0FF204610BD30B50446002089
:1001B000034600E05B1C934203D2E05CCD5C401B35
:1001C000F8D030BDF0B480EA0102D40F4200B2EBA7
:1001D000410F02D20246084611464A0042D0C30DE2
:1001E000DDB2C1F3C752AD1A202D35DAC1F31601C5
:1001F00041F4000204B15242C5F1200602FA06F1B0
:100200002A411044B3EBD05F23D0C4B1012DA0EB41
:10021000C35009DCF0BC4FF0004202EAC352DBB22B
:1002200000F5000000F0F7BA400000F1807000EB2C
:10023000C350A0F1807040EAD170490009E049083C
:1002400041EAC071A0EBC35000F50000400800EB8C
:10025000C350F0BC00F0D6BA6142012202EB41016A
:10026000001BF6E7F0BC704781F00041AAE780F080
:100270000040A7E780EA010210B502F00043400009
:1002800022D04A001FD0010E01EB1261C0F35600CC
:10029000C2F3560240F4000042F40002A0FB022028
:1002A00000047F39140400D0401C50EA124001D4ED
:1002B0004000491EC2B20C0604EBD010401C40089E
:1002C000802A02D003E0002010BD20F001000029A8
:1002D00000DA0020184310BD30B480EA010202F0B9
:1002E000004530F0004221F0004013D090B1C30D22
:1002F000D40DC2F31601C0F31600E41A41F4000154
:1003000040F400027D34914201D3641C00E04900B6
:10031000002C02DA30BC002070474FF400000023AC
:10032000914201D3891A034340084FEA4101F7D1B2
:1003300051B1914202D14FF0004105E002D24FF09D
:10034000010101E06FF0010103EBC450284430BC0F
:1003500000F058BA2DE9FE4F804681EA0300C00F35
:100360000C46009021F0004123F00045B8EB02005C
:10037000A94105D24046214690461C460B460246FE
:1003800023F00040104347D0270DC7F30A00C3F302
:100390000A510290401A019040286BDAC3F313000F
:1003A00040F4801B0098924620B10023D2EB030A50
:1003B00063EB0B0B01985946C0F14002504600F028
:1003C00000FA06460D4650465946019A00F008FAD2
:1003D00010EB08006141002487EA115284EAE773B8
:1003E0001A4340D0009A62B3019A012A4FEA075299
:1003F00015DC001B61EB02014FF0004202EA0752DC
:10040000CDE90042001C41F5801132462B4600F038
:100410003FFA03B0BDE8F08F40462146F9E7001BE4
:1004200061EB0201001C41F5801300185B412018AC
:10043000A2F5001747EB030140EAD570B6196D41EC
:1004400011E06D084FEA360645EAC0754FEA0752DB
:10045000001B61EB0201001C41F5801149084FEAC5
:1004600030000019514132462B4603B0BDE8F04F31
:1004700000F0FFB90098012240000023D0EB0202F7
:1004800063EBE073009821464FEAE074B8EB00009C
:1004900061EB0401E9E783F000435BE781F0004191
:1004A00058E72DE9FE4F81EA030404F0004421F0EF
:1004B000004100944FF0000B23F0004350EA010488
:1004C0005ED052EA03045BD0C3F30A54C1F30A5569
:1004D0002C44A4F2F3340194A0FB0254C1F31301A1
:1004E00041F48011C3F3130343F4801301FB02446E
:1004F00000FB034E840A970A44EA815447EA835773
:10050000A4FB076802958D0A05FB07854FEA932C2B
:1005100004FB0C542705029D4FEA065847EA16379C
:10052000B5EB08056EEB070C870E920E47EA8117B4
:1005300042EA8312A7FB0201B6EB0B0164EB000455
:100540002B0D43EA0C335E1844EB1C50DA4651463F
:10055000E7FB0201C5F313044FEA0B3343EA1453DC
:100560004FEA0432019C43EA0603A4F10C0402940E
:10057000009CCDE900B400F08BF903B0BDE8F08F2A
:1005800000200146F9E72DE9F04D81EA030404F06B
:10059000004B21F0004514464FF0000A23F00041C3
:1005A00050EA050220D054EA01021DD0C5F30A57D3
:1005B0000246C5F31303C1F31300C1F30A5640F416
:1005C000801543F48013A7EB0608101BD64608F2EB
:1005D000FD3873EB050002D308F1010801E0921821
:1005E0005B41B8F1000F03DA00200146BDE8F08D51
:1005F00000204FF48011064684460EE0171B73EB73
:10060000050705D3121B63EB050306434CEA010CF7
:1006100049084FEA300092185B4150EA0107EDD1DA
:1006200052EA030012D082EA040083EA050108437B
:1006300005D0101BAB4106D20122002306E00022A8
:100640004FF0004302E06FF0010253101AEB060076
:100650004CEB085110EB0A0041EB0B01BDE8F04DEB
:1006600000F007B9C10F80EAE0700844CA0796237A
:10067000002100F0D0B896230022114600F0CBB83C
:1006800000F0004220F00040C10DC0F3160040F41D
:1006900000007F2901DA00207047962903DCC1F1B0
:1006A0009601C84001E096398840002AF4D04042C3
:1006B000704720F00040C10DC0F3160040F4000068
:1006C0007F2901DA00207047962903DCC1F19601E9
:1006D000C840704796398840704700F0004230F0BB
:1006E00000400AD0C10D01F56071C0F3160042EA66
:1006F0000151C2084007114370470020014670476E
:1007000001F0004330B421F0004150EA010206D06C
:100710000A0DA2F56072C1F31301002A02DC30BC9D
:1007200000207047440F44EAC104C100E01830BC07
:1007300000EBC25000F066B8002801DBC0F10040B9
:10074000002901DBC1F1004181427047002801DB33
:10075000C0F10040002901DBC1F10041884270472F
:100760002DE9F05F0546002092469B4688460646E6
:10077000814640241BE0284641464746224600F079
:10078000FFF853465A46C01A914110D311461846F5
:10079000224600F016F82D1A67EB01084F46224654
:1007A0000120002100F00DF817EB00094E41201E3A
:1007B000A4F10104DFDC484631462A464346BDE841
:1007C000F09F202A04DB203A00FA02F10020704753
:1007D0009140C2F1200320FA03F31943904070477F
:1007E000202A06DBCB17203A41FA02F043EAE073F5
:1007F00006E041FA02F3D040C2F1200291400843E2
:10080000194670470029A8BF7047401C490008BF1F
:1008100020F00100704710B4B0FA80FC00FA0CF030
:1008200050EA010404BF10BC704749B1CCF1200468
:1008300021FA04F411FA0CF118BF012121430843F5
:10084000A3EB0C01CB1D4FEA00614FEA102042BF21
:10085000002010BC704700EBC35010440029A4BF17
:1008600010BC7047401C490008BF20F0010010BCBC
:10087000704710B5141E73F1000408DA401C41F1F2
:10088000000192185B411A4301D120F0010010BD14
:100890002DE9F04D92469B4611B1B1FA81F202E08A
:1008A000B0FA80F220329046FFF78BFF04460F46E5
:1008B00040EA0A0041EA0B0153465A46084313D066
:1008C000114653EA010019D0C8F14002504600F029
:1008D00057F805460E46504659464246FFF771FF07
:1008E000084305D0012004E020463946BDE8F08DDC
:1008F0000020054346EAE0762C4337430A98630517
:10090000E40AA0EB08000022FD0A44EA47540A303A
:1009100002D500200146E9E7010510196941DDE92A
:10092000084500196941BDE8F04DA2E770B521F016
:10093000004303430CD0C1F30A550024D5EB040552
:1009400064EB0403D617AD1AB34102DB0020014665
:1009500070BD201841EB025170BD0000064C074DE0
:1009600006E0E06840F0010394E80700984710347F
:10097000AC42F6D3FFF7BEFBC0690008E06900088F
:10098000202A04DB203A21FA02F00021704721FAE4
:1009900002F3D040C2F1200291400843194670474B
:1009A0002DE9F04D00231A461B1A8A4103DB002073
:1009B0000146BDE8F08DC1F30A52C1F3130141F4C1
:1009C00080154FF0000BD10702D100186D41521E67
:1009D0000027044640F2FF11384601EB620A3E460A
:1009E0008046024600204FF48011FFF7C9FFC2196C
:1009F0007141BB1846EB0100B4EB030C75EB000C26
:100A000004D3E41A65EB000517460E46241908F1D5
:100A100001006D4180463428E3DDF91946EB0600FC
:100A2000091BA84103D24FF0FF32134601E0002218
:100A300013461BEB070046EB0A51BDE8F04DFFF7EC
:100A400018BF00002DE9F04105460C46002128465C
:100A5000FFF70AFC0C4988602046FFF703FE80463A
:100A60000948C1694046FFF705FC0646064A9168F9
:100A70005069FFF7FFFB07463146FFF7A3FB02492A
:100A80000862BDE8F08100007400002000BFFEE7AE
:100A90002DE9F0412C4A2D492D4803F029FC00286E
:100AA0004FD12C4A2C492D4800F076F9274804688C
:100AB000002500262A4801F0CBF905B2294801F0AB
:100AC000C7F9404206B20021254801F0E0FA0021B2
:100AD000244801F0DCFA2148B0F900102046FFF765
:100AE000B1FF3146284600F0A3FF1F4A116A1F4A92
:100AF000106AFFF767FB0746FFF7C2FD1C49086055
:100B0000194A116A194A106AFFF75CFB0746FFF79A
:100B1000B7FD18490860164800F062FE204600F054
:100B20001BFC30B1134801681148006800F076FEE4
:100B300003E00021084600F071FE00200E49087015
:100B400000BFBDE8F0810000400000203C00002014
:100B5000380000204E0000204C0000204A000020F9
:100B600000040040000800409800002074000020AD
:100B70005400002058000020520000207047000060
:100B800000B587B00121042000F080FE012108207B
:100B900000F07CFE0121022000F068FE012104200B
:100BA00000F064FEC020ADF8180004208DF81B0092
:100BB00003208DF81A0006A9294800F059F806A963
:100BC000284800F055F80020ADF81200ADF80E00EE
:100BD0004FF6FF70ADF810000020ADF80C008DF856
:100BE000140003A9204801F081FA03A91F4801F06D
:100BF0007DFA00231A4603211B4801F008F900235F
:100C00001A460321194801F002F9684601F08AF9F1
:100C10000A20ADF808006946134801F02DF969462D
:100C2000124801F029F9012211460F4801F083F919
:100C3000012211460D4801F07EF900210A4801F019
:100C400026FA0021094801F022FA0121064801F0A4
:100C5000D2F80121054801F0CEF807B000BD000030
:100C600000080140000C0140000400400008004062
:100C70002DE9F04102460025002600200023002433
:100C8000002791F803C00CF00F0591F803C00CF099
:100C9000100CBCF1000F03D091F802C04CEA05051E
:100CA00091F800C0BCF1000F31D0146800202BE097
:100CB0004FF0010C0CFA00F3B1F800C00CEA030687
:100CC0009E4220D183004FF00F0C0CFA03F7BC4377
:100CD00005FA03FC4CEA040491F803C0BCF1280FA8
:100CE00006D14FF0010C0CFA00FCC2F814C00AE067
:100CF00091F803C0BCF1480F05D14FF0010C0CFA7C
:100D000000FCC2F810C0401C0828D1D31460B1F810
:100D100000C0BCF1FF0F34DD546800202EE000F16C
:100D2000080C4FF0010808FA0CF3B1F800C00CEA07
:100D300003069E4221D183004FF00F0C0CFA03F7FB
:100D4000BC4305FA03FC4CEA040491F803C0BCF16F
:100D5000280F05D100F1080C08FA0CF8C2F814802D
:100D600091F803C0BCF1480F07D100F1080C4FF017
:100D7000010808FA0CF8C2F81080401C0828CED3ED
:100D80005460BDE8F081016170470AB1016100E083
:100D90004161704700BFFEE72DE9FC4104460D4666
:100DA00016466B4606224321682000F0C3F9074629
:100DB000BFB99DF801009DF8001040EA012000B283
:100DC00020809DF803009DF8021040EA012000B247
:100DD00028809DF805009DF8041040EA012000B22B
:100DE00030803846BDE8FC8110B500200E4908600F
:100DF0000E48006820F0F0000C49086008460068C2
:100E000040F03000086000200949C1F8A40100F05A
:100E100011F801200449086000F00CF80020044992
:100E2000C1F8A00110BD0000A0812142040C0140C6
:100E30000080214210B5022002F0CEF810BD000063
:100E400008B50121082000F021FD4FF44070ADF8F5
:100E5000000010208DF8030003208DF80200694681
:100E60000448FFF705FF4FF440710248FFF78BFF7E
:100E700008BD0000000C014010B500200E490860BC
:100E80000E48006820F0F0000C4908600846006831
:100E900040F03000086001200949C1F8A401FFF7C3
:100EA000C9FF012004490860FFF7C4FF002004497E
:100EB000C1F8A00110BD0000A0812142040C014036
:100EC0000080214270B5054600241648006820F0D5
:100ED000F000144908600846006840F0800008608F
:100EE000002614E0002010490860FFF7A3FF01204E
:100EF0000E49C1F8A0016006040E0B487C3800685A
:100F000008B1601CC4B2FFF795FF701CC6B2082E72
:100F1000E8DB15B9FFF7B0FF01E0FFF765FF2046FA
:100F200070BD0000040C0140A081214200802142DC
:100F300070B504461248006820F0F00010490860BF
:100F40000846006840F03000086000200D49086045
:100F5000002512E0E0090B49091D08606006040E37
:100F600001200949C1F8A001FFF764FF00200549ED
:100F70000860FFF75FFF681CC5B2082DEADB70BD93
:100F8000040C0140A08121420080214210B50E488E
:100F9000006820F0F0000C4908600846006840F046
:100FA000300008600120094908600949C1F8A00122
:100FB000FFF740FF002005490860FFF73BFF0020D6
:100FC0000349C1F8A00110BD040C0140A4812142D5
:100FD0000080214210B50E48006820F0F0000C4956
:100FE00008600846006840F03000086000200949A9
:100FF00008600949C1F8A401FFF71CFF0120054959
:1010000008600549C1F8A401FFF714FF10BD0000F6
:10101000040C0140A08121420080214210B500242F
:101020001448006820F0F000124908600846006883
:1010300040F08000086001200F490860FFF7FAFEC9
:1010400001200E49C1F8A001FFF7F4FE07E0601C83
:10105000C4B2FA2C03DDFFF7BDFF012010BD064826
:10106000803800680028F2D10349091F086000BFDA
:10107000F4E70000040C0140A481214200802142D9
:1010800010B5FFF7DDFE80216B2000F0D7F864205B
:1010900001F096FF00216B2000F0D0F8032000F053
:1010A0008BF8002000F080F8322000F0AAF8002130
:1010B000382000F0C3F800216A2000F0BFF80021BA
:1010C000232000F0BBF88021372000F0B7F875200E
:1010D00000F013F80446682C0BD101216B2000F0BE
:1010E000ADF800216C2000F0A9F8322000F089F85A
:1010F00001E0012010BD0020FCE770B50446FFF7B9
:1011000045FFD020FFF714FFFFF788FF2046FFF7C9
:101110000FFFFFF783FFFFF739FFD120FFF708FF2D
:10112000FFF77CFF0020FFF7CDFE0546FFF752FFDB
:10113000284670BD2DE9F04106460F4614461D466F
:10114000FFF724FF002141EA4601C8B2FFF7F0FE95
:10115000FFF764FF20B1FFF73DFF0120BDE8F081FC
:101160003846FFF7E5FEFFF759FFFFF70FFF0121B4
:1011700001EB4601C8B2FFF7DBFEFFF74FFF0DE0C2
:10118000012C04D10020FFF79DFE287003E0012010
:10119000FFF798FE2870601EC4B26D1C002CEFD1C2
:1011A000FFF718FF0020D9E710B50446E006010E4E
:1011B0001C2000F043F810BD10B50446E006010EF7
:1011C0001B2000F03BF810BD70B504460025BC2C78
:1011D00001DB012510E0622C01DB02250CE02A2C4A
:1011E00001DB032508E0142C01DB042504E00A2CB4
:1011F00001DB052500E0062529461A2000F01EF82F
:1012000070BD70B50446B4F57A7F01DD4FF47A7491
:10121000042C00DA04244FF47A7090FBF4F0401EA2
:10122000C5B22946192000F009F80546264604EB08
:10123000D671C1F34F00FFF7C7FF70BD70B505460B
:101240000C46FFF7A3FED020FFF772FEFFF7E6FE85
:1012500018B1FFF7BFFE012070BD2846FFF768FEFA
:10126000FFF7DCFE2046FFF763FEFFF7D7FE18B15D
:10127000FFF7B0FE0120EFE7FFF7ACFE0020EBE741
:101280002DE9F04105460E4617469846FFF77EFECB
:10129000002141EA4501C8B2FFF74AFEFFF7BEFE52
:1012A00020B1FFF797FE0120BDE8F0813046FFF73F
:1012B0003FFEFFF7B3FE00240CE018F80400FFF730
:1012C00037FEFFF7ABFE18B1FFF784FE0120EBE716
:1012D000601CC4B2BC42F0DBFFF77CFE0020E3E7F9
:1012E00000BFFEE770B504460D46E2B24FF4804100
:1012F0000448FFF74AFDEAB24FF400410148FFF706
:1013000044FD70BD000C014070B504460D46E2B2CC
:101310004FF400510448FFF738FDEAB24FF4805112
:101320000148FFF732FD70BD000C014008B50121F6
:10133000082000F0ABFA10208DF803004FF4704045
:10134000ADF8000003208DF8020069460148FFF760
:101350008FFC08BD000C014010B504460C49204626
:10136000FFF7F4F904D30B492046FFF7E5F90DD256
:1013700000210846FFF7B6FF00210846FFF7C4FF2B
:101380000021054800F037FD002010BD0120FCE7DA
:1013900000004842000048C2002C01407047000095
:1013A00070B5002100230F22C47804B3154C2468C3
:1013B00004F4E064C4F5E064210AC1F10403CA4006
:1013C000447804FA03F184781440214309010E4C57
:1013D0000678A155047804F01F050124AC40057877
:1013E0006D11AD0005F1E025C5F8004109E0047874
:1013F00004F01F050124AC40044D0678761145F831
:10140000264070BD0CED00E000E400E080E100E06B
:1014100002490143024A1160704700000000FA05CA
:101420000CED00E070B500240EE00021204600F035
:10143000E6F8002504E0002000F050F9681CC5B271
:10144000802DF8DB601CC4B2082CEEDB70BD000000
:1014500008B50121082000F019FA14208DF80300C6
:1014600003208DF802004FF48060ADF8000069465B
:101470000A48FFF7FDFB4FF40060ADF80000694635
:101480000648FFF7F5FB012291020448FFF77DFCB7
:101490000122D1020148FFF778FC08BD000C014091
:1014A00070B50546002415E08020204100EA0502C1
:1014B0004FF400610E48FFF768FC012291020C48CE
:1014C000FFF763FC00224FF480610948FFF75DFCE1
:1014D000601CC4B2082CE7DB012291020448FFF72C
:1014E00054FC00224FF480610148FFF74EFC70BDB0
:1014F000000C014010B50122D1020A48FFF745FC5B
:10150000012291020748FFF740FC00224FF40061DE
:101510000448FFF73AFC00224FF480610148FFF7CE
:1015200034FC10BD000C014010B500224FF40061E6
:101530000648FFF72AFC012291020448FFF725FC28
:101540000122D1020148FFF720FC10BD000C014030
:1015500070B5002406E0002500E06D1CB5F57A7F2B
:10156000FBD3641CB4F57A7FF5D3FFF771FFAE208F
:1015700000F0A4F8D52000F0A1F8802000F09EF83B
:10158000A82000F09BF83F2000F098F8D32000F04E
:1015900095F8002000F092F8402000F08FF8A1208C
:1015A00000F08CF8C82000F089F8DA2000F086F806
:1015B000122000F083F8812000F080F8CF2000F0A6
:1015C0007DF8D92000F07AF8F12000F077F8DB20E0
:1015D00000F074F8302000F071F8A42000F06EF8EC
:1015E000A62000F06BF88D2000F068F8142000F0C1
:1015F00065F8AF2000F062F8FFF714FF70BD70B51A
:1016000005460C4645F0B00000F058F8102141EABC
:10161000141000F053F804F00F0000F04FF870BD04
:101620002DE9F04105460E461746721ED206110EF0
:101630006A1E5206100EFFF7E2FF002409E0A7F130
:101640002001134A02EB0111085D00F047F8601C0D
:10165000C4B2082CF3DB721ED206110E6A1E0123DF
:1016600003EB4202D0B2FFF7CAFF00240BE0A7F160
:101670002001074A02EB011204F10801505C00F05E
:101680002DF8601CC4B2082CF1DBBDE8F08100002D
:10169000906200082DE9F04107460E4615460024E9
:1016A00007E02A5D3019C1B23846FFF7B9FF601C68
:1016B000C4B2285D0028F4D1BDE8F08110B504461D
:1016C000FFF718FF7820FFF7EBFE0020FFF7E8FE9A
:1016D0002046FFF7E5FEFFF727FF10BD10B50446D3
:1016E000FFF708FF7820FFF7DBFE4020FFF7D8FE6A
:1016F0002046FFF7D5FEFFF717FF10BD00200A496F
:1017000008600A484861002088610948C8610020D3
:10171000C860086107480849486108488861002096
:10172000C861C86008617047740000200000AA42C8
:1017300014AE073F5C8F13429800002091ED3C3EB1
:1017400000B589B00121084600F090F8012104207D
:1017500000F09CF818208DF823000C20ADF8200034
:1017600003208DF8220008A91C48FFF781FA4FF0EA
:10177000804000F0E9FB0020ADF81A00ADF816003B
:1017800040F2E730ADF818000020ADF814008DF8F5
:101790001C0005A94FF0804000F0A8FC01A800F053
:1017A00067FC6020ADF804000020ADF80C000120BB
:1017B000ADF806000020ADF80A0001A94FF0804006
:1017C00000F0C8FB01A94FF0804000F013FC01219C
:1017D000880700F010FB09B000BD000000080140C0
:1017E0000268B2F5487F02DD4FF4487202600A6871
:1017F000B2F5487F02DD4FF448720A60026812F5C4
:10180000487F01DA044A02600A6812F5487F01DA6B
:10181000014A0A6070470000E0FCFFFF70B5044613
:101820000D46002C04DD00210120FFF75BFD04E0E4
:1018300001210020FFF756FD6442002D04DD002148
:101840000120FFF761FD04E001210020FFF75CFDAE
:101850006D42A1B24FF0804000F014FCA9B24FF0ED
:10186000804000F011FC70BD7047000029B1064AAD
:10187000D2690243044BDA6104E0034AD26982432D
:10188000014BDA61704700000010024029B1064A9E
:1018900092690243044B9A6104E0034A92698243CD
:1018A000014B9A6170470000001002407047000031
:1018B00010B54FF4A060FFF7ABFDFFF749FEFFF74F
:1018C000DFFBFFF733FDFFF75BF9FFF739FFFFF7AA
:1018D00015FF0BE015A201210846FFF7DBFEFFF71D
:1018E000A1FDC82001F06CFBFFF79CFD02F012FE89
:1018F0000028EFD10FA201210846FFF7CBFEC82038
:1019000001F05EFBFFF78EFD0DA205210120FFF720
:10191000C1FE40F2E73001F053FBFFF783FD0020EA
:1019200008490870487000F033FC10BD4661696CCE
:10193000656400007375636365737365640000001C
:101940004F4B21005200002010B500F001F810BDEF
:101950000CB50020019000903348006840F48030BE
:101960003149086000BF3048006800F40030009042
:101970000198401C0190009818B90198B0F5A06F2B
:10198000F1D12948006800F4003010B10120009026
:1019900001E0002000900098012843D1234800680E
:1019A00040F01000214908600846006820F003005C
:1019B00008600846006840F0020008601A48406865
:1019C000194948600846406848600846406840F445
:1019D000806048600846406820F47C1048600846F3
:1019E000406840F4E81048600846006840F08070A5
:1019F000086000BF0C48006800F000700028F9D0B3
:101A00000948406820F003000749486008464068DC
:101A100040F00200486000BF0348406800F00C003E
:101A20000828F9D10CBD000000100240002002403F
:101A30002DE9FF4704460D46002661190846FEF7CA
:101A400011FE264988608868FEF747FE0746244A4B
:101A5000244BFEF726FDCDE902012049C868FEF7B8
:101A60003CFE07461E4A204BFEF71BFDCDE9000158
:101A7000DDE90223FEF76EFC8146FEF741FE0646D5
:101A8000164908693146FEF79DFB1449086108694B
:101A90001649FEF75BFE02D21448104908610F494F
:101AA00008691349FEF748FE02D211480B49086144
:101AB0000A4A11699069FEF7DDFB0746074A9168FB
:101AC0005069FEF7D7FB80463946FEF77BFB03499A
:101AD00008620846C660BDE8FF8700009800002045
:101AE0009A9999999999C93F9999E93F0000484471
:101AF000000048C47047000010B51348006840F06B
:101B000001001149086008464068104908400E4924
:101B10004860084600680E4908400B4908600846BE
:101B2000006820F4802008600846406820F4FE0029
:101B300048604FF41F008860FFF706FF4FF0006019
:101B40000449086010BD0000001002400000FFF8CA
:101B5000FFFFF6FE08ED00E0F0B50C46154600224A
:101B60000021068C4FF6FE773E400684028B018CE6
:101B70004FF60C7632407E1C06EA03162E433243A3
:101B8000104EB0420ED0104EB0420BD0B0F1804F8C
:101B900008D00E4EB04205D00D4EB04202D00D4ED0
:101BA000B04206D14FF6FD76314044F00106314394
:101BB00005E04FF6F576314044F0010631430283EB
:101BC0000184F0BD002C01400034014000040040BD
:101BD00000080040000C0040F0B50C4615460022FD
:101BE00000210026078C4FF6EF7C07EA0C070784DC
:101BF000028B018C4FF6FF7707EA041640F6FF4789
:101C00003A404FF6FF7707EA03373A434FF6FF773C
:101C100007EA05273A43114FB8420ED0104FB84299
:101C20000BD0B0F1804F08D00E4FB84205D00E4F08
:101C3000B84202D00D4FB84206D14FF6DF77394097
:101C400046F01007394305E04FF65F77394044F01E
:101C50001007394302830184F0BD0000002C0140CD
:101C6000003401400004004000080040000C004027
:101C7000F0B50C461546002200210026078C4FF6D1
:101C8000FF6C07EA0C070784828B018C4FF6FF7705
:101C900007EA04264FF60C773A404FF6FF7707EA3B
:101CA00003172F433A43114FB8420ED0104FB8429A
:101CB0000BD0B0F1804F08D00E4FB84205D00E4F78
:101CC000B84202D00D4FB84206D14FF6FF57394007
:101CD00046F48077394305E04FF2FF57394044F42A
:101CE0008077394382830184F0BD0000002C0140DD
:101CF000003401400004004000080040000C004097
:101D0000F0B50C461546002200210026078C4EF641
:101D1000FF7C07EA0C070784828B018C4FF6FF7764
:101D200007EA043640F6FF473A404FF6FF7707EAE6
:101D300005273A434FF6FF7707EA03373A43114F37
:101D4000B8420ED0104FB8420BD0B0F1804F08D03F
:101D50000E4FB84205D00E4FB84202D00D4FB842D8
:101D600006D14DF6FF77394046F48057394305E0F8
:101D700047F6FF57394044F4805739438283018442
:101D8000F0BD0000002C0140003401400004004080
:101D900000080040000C004010B50121054800F08B
:101DA0005AF8012805D1FEF773FE0121014800F021
:101DB0001FF810BD002C014010B50121044800F0AF
:101DC0004AF818B10121024800F012F810BD0000D5
:101DD0000004004010B50121044800F03CF818B19F
:101DE0000121024800F004F810BD00000008004086
:101DF000CA430282704721B1028842F00102028088
:101E000004E002884FF6FE731A4002807047F0B576
:101E10000C4615461E460021002200230189028B34
:101E2000038C4FF6F877394021434FF6FC473A4090
:101E300040F201173A434FF6DD773B404FF6FF770C
:101E400007EA06172F433B43018102830384F0BD59
:101E50000146888C704730B50246002000230024DC
:101E6000158A05EA0103958905EA010413B10CB14D
:101E7000012000E0002030BD70B505460C46244826
:101E800085420ED0234885420BD0B5F1804F08D053
:101E90002148854205D02148854202D0204885420C
:101EA00000D100E000BF208850B92389A288618852
:101EB0002846FFF751FEE188284600F0EAF825E0C1
:101EC000208804280AD12389A28861882846FFF740
:101ED00083FEE188284600F0E5F817E0208808280E
:101EE0000AD12389A28861882846FFF7C1FEE188CC
:101EF000284600F0E4F809E02389A2886188284692
:101F0000FFF7FEFEE188284600F0E2F870BD000011
:101F1000002C014000340140000400400008004053
:101F2000000C0040002101804180012181800021BE
:101F3000C180018170471AB183890B43838102E01C
:101F400083898B438381704701894FF6F872114072
:101F50000181704770B5002400220023058C4FF6E4
:101F6000FF6635400584028C8388848B4FF68F751D
:101F70002C404FF6FC752C400D882C434FF6FF5536
:101F80002A400D894FF6FF7606EA05252A434D883B
:101F900006EA05252A43154DA84202D0144DA84251
:101FA0001DD14FF2FF752A404D894FF6FF7606EAA4
:101FB00005252A434FF6FF352A408D8806EA052578
:101FC0002A434EF6FF752B404DF6FF752B408D8949
:101FD00006EA05152B43CD8906EA05152B438380B8
:101FE0008483CD888587028470BD0000002C014069
:101FF0000034014070B5002200230024058C4EF609
:10200000FF7635400584038C8488828B48F6FF7503
:102010002A404FF6FF452A400D884FF6FF7606EA24
:1020200005252A434DF6FF752B400D8906EA053537
:102030002B434D8806EA05352B430B4DA84202D0B1
:102040000A4DA84208D14BF6FF752C408D894FF6FA
:10205000FF7606EA85152C4384808283CD88A0F81C
:102060004050038470BD0000002C0140003401404A
:102070000021018041808180C18001814181818175
:10208000C181704781877047A0F8401070478184F4
:102090007047028B4FF6F3731A400283028B0A4398
:1020A00002837047028B4FF2FF331A400283028B88
:1020B0004FF6FF7303EA01231A4302837047828BB2
:1020C0004FF6F3731A408283828B0A4382837047F0
:1020D000828B4FF2FF331A408283828B4FF6FF735D
:1020E00003EA01231A43828370470000002202881A
:1020F0001D4B98420ED01D4B98420BD0B0F1804F33
:1021000008D01B4B984205D01A4B984202D01A4B6C
:10211000984204D14FF68F731A404B881A43174BDD
:10212000984207D0164B984204D04FF6FF431A400E
:10213000CB881A4302808B8883850B8803850A4BE2
:1021400098420BD0094B984208D00E4B984205D0CC
:102150000D4B984202D00D4B984201D10B7A038669
:102160000123838270470000002C014000340140AD
:102170000004004000080040000C00400010004037
:10218000001400400040014000440140004801406C
:102190001FB50121C802FFF779FB1848FFF7D4FEED
:1021A0000020ADF80A00ADF806006320ADF8080085
:1021B00040F2CF20ADF8040000208DF80C0001A9FA
:1021C0000E48FFF793FF012211460C48FFF7B3FEBC
:1021D0004FF4A060FFF71CF919208DF800000120D2
:1021E0008DF803008DF801008DF802006846FFF7B6
:1021F000D7F801210148FFF7FEFD1FBD002C01406B
:1022000010B504462146054800F071F800BF802152
:10221000024800F030F80028F9D010BD0048004016
:1022200010B540F22551094800F032F801280CD1D0
:10223000064800F057F80649087001200549087063
:1022400040F22551014800F007F810BD0048004059
:10225000350000203600002010B50022002340F693
:102260006A14A14200D100BF0A1201249440A3B213
:10227000DC43048010BD02460020B1F5007F00D190
:1022800000BF13880B400BB1012000E00020704715
:1022900070B50246002400230025002040F66A168F
:1022A000B14200D100BFC1F3421501F01F03012666
:1022B00006FA03F3012D02D19689334006E0022D80
:1022C00002D1168A334001E0968A33400C1201266F
:1022D00006FA04F41688344013B10CB1012000E072
:1022E000002070BD01468888C0F308007047C1F324
:1022F00008028280704700BFFEE700000FB4054B64
:1023000010B503A9044A029800F09AF810BC5DF8D1
:1023100014FB0000BD3B00085C000020490050EAAF
:10232000C12018BF04204A0D18BF40F0010040F240
:10233000FF72B2EB515F08BF40F00200012808BFF6
:10234000052070472DE9F0414F1E00EBC701044600
:10235000D1E9000115461E4637F006020DD02A4687
:102360003346FEF79EF87F1E04EBC703D3E9002334
:10237000FDF7F0FF37F00602F1D1022F25D0042F30
:1023800013D0062F18BFBDE8F0812A463346FEF76A
:1023900088F8D4E90A23FDF7DDFF2A463346FEF725
:1023A00080F8D4E90823FDF7D5FF2A463346FEF727
:1023B00078F8D4E90623FDF7CDFF2A463346FEF729
:1023C00070F8D4E90423FDF7C5FF2A463346FEF72B
:1023D00068F8D4E90223FDF7BDFF2A463346FEF72D
:1023E00060F8D4E90023BDE8F041FDF7B3BF012256
:1023F000FEF79CBAFDF7AEBF002213461046114609
:10240000FEF7C1B8024A00201107FEF78FBA00009C
:1024100001FDFFFF02E008C8121F08C1002AFAD11F
:1024200070477047002001E001C1121F002AFBD154
:1024300070470000014908607047000060000020FC
:102440002DE9FF4F8DB00F460546002606E02528F2
:102450000BD0DDE90F1290476D1C761C2878002800
:10246000F5D111B03046BDE8F08F0024A246A14658
:102470000122EC4900E0044315F8013F203B02FA39
:1024800003F00842F7D128782A2810D06FF02F02E5
:102490002878A0F13001092914D80AEB8A0102EB4F
:1024A000410144F0020400EB010A6D1CF0E701CF8A
:1024B0005FEA000A03D544F40054CAF1000A44F06C
:1024C00002046D1C28782E2817D115F8010F44F04E
:1024D00004042A280ED06FF02F022878A0F13001D2
:1024E00009290AD809EB890102EB410100EB010936
:1024F0006D1CF2E757F8049B6D1C28786C280FD0F0
:1025000006DC4C2817D068280DD06A2814D104E0C6
:10251000742810D07A280FD10DE044F400140AE09A
:1025200044F4801401E044F440146978814202D1FB
:1025300004F580146D1C6D1C2A786E2A1FD00CDCEB
:10254000632A31D004DC002A8BD0582A11D1A3E0B1
:10255000642A68D0692A0CD165E0732A2ED004DC85
:102560006F2A73D0702A04D19BE0752A6FD0782A25
:102570006ED01046DDE90F129047761C50E1C4F38F
:102580000250022806D0032809D0042801CF09D020
:10259000066045E101CFF117C0E9006140E101CFDC
:1025A00006803DE106703BE117F8040B8DF8000052
:1025B00000208DF80100EB46012003E057F804BB32
:1025C0004FF0FF3061074FF0000102D40DE008F139
:1025D0000101884649450FDA8045F8DB1BF80810F1
:1025E0000029F4D108E008F1010188468142FADBB4
:1025F0001BF808100029F6D1DDE90F23AAEB08002B
:102600008146214600F036F9304400EB080604E02C
:10261000DDE90F121BF8010B9047B8F10108F7D262
:1026200021464846F7E00A21C4F302534FF0000B5D
:102630000891022B04D001CFC117032B09D00AE067
:10264000FF1D27F00707F7E8020108E032E01FE06E
:1026500020E000B2C117042B01D140B2C117031E04
:1026600071F1000307DA4FF0000CD0EB0C006CEBBB
:1026700001012D2302E0230504D52B238DF82430FE
:10268000012303E0E30701D02023F7E7984658E051
:102690000A2110E010210EE010204FF0000B0890EE
:1026A0000CE010214FF0000B44F004044FF0080937
:1026B000089103E008214FF0000B0891C4F3025386
:1026C000022B04D001CF0021032B06D006E0FF1D12
:1026D00027F00707F7E8020103E080B2042B00D1DE
:1026E000C0B24FF0000823072BD5702A07D0DDF8C1
:1026F00020C08CF0100C5CEA0B0C05D00EE04023DF
:102700008DF82430012308E050EA010306D030237D
:102710008DF824308DF8252002239846DDF820C05E
:102720008CF0080C5CEA0B0C0BD150EA010301D1D0
:10273000630706D530238DF824304FF00108A9F146
:102740000109582A04D038A20B9208AA0A920BE079
:102750003AA2F9E75B46089AFEF702F80B9B9B5CEE
:102760000A9A521E0A92137050EA0102F2D10A9894
:10277000ADEB000000F1200B600702D524F480349B
:1027800001E04FF00109D94502DDA9EB0B0000E0A3
:10279000002000EB0B0141440890AAEB010AE00382
:1027A00006D4DDE90F232146504600F063F80644C5
:1027B0004FF0000908E009A911F80900DDE90F123E
:1027C000904709F10109761CC145F4DBE0030CD503
:1027D000DDE90F232146504600F04CF8064404E0A2
:1027E000DDE90F1230209047761C0899481E0890AA
:1027F0000029F5DC08E00A980A990078491C0A913A
:10280000DDE90F129047761CBBF10001ABF1010B23
:10281000F1DC21465046DDE90F2300F019F80644AB
:102820006D1C1BE609280100303132333435363750
:10283000383961626364656600000000303132330C
:1028400034353637383941424344454600000000AC
:102850002DE9F041044600251E461746880404D49D
:1028600005E039462020B0476D1C641EF9D5284686
:10287000BDE8F0812DE9F041044600251E46904652
:10288000C80301D5302700E02027880404D505E0DF
:1028900041463846B0476D1C641EF9D52846BDE850
:1028A000F08100002DE9FE4F06460F4600256846E0
:1028B00001F08CF9002442E056F8240057F8241067
:1028C000A0EB010ABAF1000F01DB514601E0CAF1A9
:1028D00000010846FDF7C6FE83464FF08F41FDF725
:1028E000FBFC80465DF824000021FDF725FF16D093
:1028F0005DF824104046FDF7EFFC82464FF07E5114
:10290000FDF7B2FC814629F0004A0F48416A504663
:10291000FDF71CFF12D20120A04005430EE00A483B
:10292000C1694046FDF708FF05D30748016A4046E4
:10293000FDF70CFF02D20120A0400543641C032CCC
:10294000BADB2846BDE8FE8F686200082DE9F04D2D
:102950008D4F21F0004A86B005460C46BA452ADB69
:10296000AAEB070028430AD08848824501DC1AD127
:10297000CDB106B02846BDE8F04DFFF738BD844A1A
:10298000844B2846FDF78DFD07460E46824A834B51
:1029900028462146FDF785FD06B03A463346BDE898
:1029A000F04DFDF7D7BC0120FFF744FD06B0BDE8B0
:1029B000F04DFFF721BD7A48824542DABAF1795FDE
:1029C0000BDA2846FFF7AAFC042808BFFFF71AFD18
:1029D000284606B02146BDE8F08D2A460B46104633
:1029E000FDF75FFD834602466E480E460B46062104
:1029F0007844FFF7A7FC5A463346FDF752FD804660
:102A000069488A465A46334604217844FFF79AFCBF
:102A10005A463346FDF745FD00223B46FDF79AFC3A
:102A200002460B4640465146FDF7ADFD2A46234679
:102A3000FDF737FD06B02A462346BDE8F04DFDF709
:102A400089BC284624F0004100223D463B46FDF764
:102A500025FD4FF0FF32FDF769FF06460246534859
:102A60000F460B4606217844FFF76CFC32463B4686
:102A7000FDF717FDCDE900014D4832463B460421E4
:102A80007844FFF75FFC32463B46FDF70AFD002223
:102A90002B46FDF75FFC834602913046394602F033
:102AA000ADFD804643480D46504517DCDDE9000189
:102AB0005A46029BFDF767FD42462B46FDF7F1FCA7
:102AC00042462B46FDF746FC0122FDF72FFF304A18
:102AD000304BFDF7E0FC304A304B4CE04FF0000A41
:102AE00052460B464046FDF735FCCDE903105246F1
:102AF0002B4610461946FDF7D4FC32463B46FDF7FF
:102B0000CDFCDDE90332FDF73EFD06460F46DDE96B
:102B100000015A46029BFDF736FD834600910122D3
:102B200030463946FDF702FF194A1A4BFDF7B6FC4D
:102B300006460F46012240462946FDF7F7FE5A4653
:102B4000009BFDF7AEFC32463B46FDF7A4FC064673
:102B50000F46012250462946FDF7E8FE0E4DDFF8EC
:102B600058802A464346FDF799FC32463B46FDF71E
:102B700095FC2A464346FDF791FC002CD8BF81F016
:102B8000004106B0BDE8F08D0000F03F0000F07F8E
:102B9000075C143326A6913C182D4454FB21F93FC1
:102BA0000000E03F8C3E0000A23E0000163E000008
:102BB0002C3E00003333EF3FFB21E93F2DE9F84F76
:102BC00004460D4621F0004000917349814211DC1A
:102BD0007249884201DC06D12CB120462946BDE865
:102BE000F84FFFF704BC6E48002DCCBF6D496E490D
:102BF000BDE8F88F6D49814211DD6D498142D8BF32
:102C00004FF0FF366DDD20462946FFF787FB04288D
:102C100008BFFFF7F7FB20462946BDE8F88F654956
:102C2000654F25F00045814233DD6449814219DD5D
:102C3000002632464FF0804320462946FDF78AFBA6
:102C400080468A46012220462946FDF76FFE002273
:102C50003B46FDF720FC42465346FDF794FC0446F4
:102C60000D463EE001260022BA463B462046294654
:102C7000FDF770FB80460F4600225346204629464A
:102C8000FDF709FC42463B46FDF77DFC04460D4638
:102C900027E04B4981421BDDDFF828A102260022F4
:102CA000534620462946FDF7FCFB00223B46FDF734
:102CB00051FB80460F460022534620462946FDF729
:102CC000EAFB42463B46FDF75EFC04460D4608E043
:102CD000032622462B4600203B49FDF754FC0446C0
:102CE0000D4622462B4610461946FDF7DAFB8B4669
:102CF000824602460B46FDF7D4FB074602463348A0
:102D000088460B4606217844FFF71CFB52465B467B
:102D1000FDF7C7FB82462E488B463A4643460521BF
:102D20007844FFF70FFB3A464346FDF7BAFB0246ED
:102D30000B46002E504659460CDAFDF70BFB224697
:102D40002B46FDF7AEFB01B022462B46BDE8F04F07
:102D5000FDF7A4BBFDF7FEFA22462B46FDF7A1FBCB
:102D60001C4A7A4402EBC603D3E90023FDF793FB28
:102D700022462B46FDF78FFB174A7A4402EBC60327
:102D8000D3E90023FDF78AFB009A002AB8BF81F03F
:102D90000041BDE8F88F0000000010440000F07F03
:102DA000182D4454FB21F93FFB21F9BF0000DC3F03
:102DB0000000203E0000F33F0000F03F0000E63F2F
:102DC000008003400000F83F0000F0BF2E3C0000F0
:102DD000EC3B00008A3B0000523B00002DE9F04D27
:102DE0009446CCF1000423F000464CEA0404524F10
:102DF00046EAD4749A46884621F00042BC4206D87E
:102E0000454240EA050442EAD474BC4204D9BDE814
:102E1000F04D6246FFF7EEBAAAF14055A5F17F6585
:102E200055EA0C040BD0022404EAAA74434DDFF8DF
:102E300010E144EAD87452EA000B04D00CE0BDE87B
:102E4000F04DFFF7BBBE002C14BF012CBDE8F08D88
:102E5000022C30D0032C32D056EA0C0B0AD0BE42E2
:102E600020D1BA4209D126F0804622F08042334672
:102E7000114617E000291ADB25E0DFF8C8B0FB4453
:102E8000002C04BFDBE90001BDE8F08D012C02BF7E
:102E9000DBE9000181F00041BDE8F08D022C0AD091
:102EA000032C0CD0BA4212D1B8F1000F0BDA234830
:102EB0002549BDE8F08D28462449BDE8F08D284617
:102EC0007146BDE8F08D1D482149BDE8F08D921B8B
:102ED00012153C2AC4BF19481D490EDCBAF1000F77
:102EE000BEBF12F13C0F0020014606DB6246FDF733
:102EF0004AFB21F00041FFF761FE002C08BFBDE84E
:102F0000F08D012C04BF81F00041BDE8F08D114A25
:102F1000114B022C07D0FDF7BEFA2A46BDE8F04D52
:102F20000A4BFDF7B8BAFDF7B6FA2A46BDE8F04DF0
:102F3000064BFDF7B3BA00000000F07F182D445493
:102F4000FB2109C0E63A0000FB21F9BFFB21094043
:102F5000FB21F93F075C143326A6A13C2DE9F04183
:102F60000446E07800F0C006E07800F03F056078A5
:102F700000F0010098B1EF102846E91705EB5171F8
:102F8000C910A5EBC101491C01F0FF080B480068FE
:102F900020B10A48414602683846904700BF607831
:102FA00000F0080030B10548406818B1B011034A7C
:102FB000516888470020BDE8F081000064000020CF
:102FC00000B5034603E04FF47A7000F005F8181ED0
:102FD000A3F10103F7D100BD00EBC001C9004FF020
:102FE000E0225161002191610521116100BF4FF084
:102FF000E021096901F480310029F8D004214FF063
:10300000E0221161704738B5044664B120208DF884
:10301000000028208DF8010030208DF802003820B3
:103020008DF8030004E0A32204216846FDF7ABF805
:103030006A46042140F69E2002F00EFA01F0F8FDE7
:1030400038BD00003EB5044602208DF80000CA20BD
:103050008DF80100E3208DF8020009208DF80300AF
:103060006A460421682002F0F7F9A3208DF80000D9
:1030700004F0400048B1C0208DF80100C8208DF850
:103080000200C2208DF8030006E0A3208DF80100A5
:103090008DF802008DF8030004F4C07048B1C4201C
:1030A0008DF80400CC208DF80500C6208DF80600B0
:1030B00006E0A3208DF804008DF805008DF80600C9
:1030C000A3208DF807008DF808008DF809006A46E6
:1030D0000A2140F6A72002F0BFF904F0030018B15E
:1030E00020208DF8000002E0D8208DF800006A460C
:1030F000012140F6B62002F0AFF904F0200018B12B
:10310000012000F0ADF802E0002000F0A9F804F47E
:10311000C07008B304F4807060B1B2208DF8000074
:103120008B208DF80100B6208DF802009B208DF8D1
:1031300003000BE0B0208DF8000080208DF8010026
:10314000B4208DF8020090208DF803006A46042117
:1031500040F6A22002F080F904F0010020B3F8202C
:103160008DF800006A4601214FF40B6002F074F9FB
:10317000FA21072000F02CFC072000F0F3FB0120CF
:1031800000F013FC642000F0F3FC4FF4FA7000F040
:1031900002FDC821304800F0A3FB282000F0BCFB52
:1031A0000A2000F0CCFB08E0D8208DF800006A4629
:1031B00001214FF40B6002F04FF904F0020018B146
:1031C000D9208DF8000002E0D8208DF800006A4672
:1031D000012140F23D7002F03FF904F0040018B103
:1031E000012000F069F802E0002000F065F804F02A
:1031F000100018B10120FFF706FF02E00020FFF7E2
:1032000002FF44F008001549488101F011FD00203B
:103210001249887304F0400018B10846807B801D75
:10322000887304F4C07020B10C48807B801D0B496A
:10323000887304F0140020B10848807B10300749DF
:10324000887304F0030020B10448807B001D03490B
:10325000887300203EBD000009E3CA02640000201C
:103260003EB504466CB10EA1D1E900208968CDE9D4
:10327000002002916A4609214FF4976002F0ECF8B1
:103280003EBD0AA2D2E900109268CDE90102009188
:103290006A4609214FF4976002F0DEF8F0E700007B
:1032A000B8AAB38DB4980D355D000000B8AAAAAADB
:1032B000B088C3C5C700000038B5044664B1C0205B
:1032C0008DF80000C2208DF80100C4208DF80200A6
:1032D000C6208DF8030004E08B2204216846FCF729
:1032E00052FF6A46042140F6982002F0B5F801F03A
:1032F0009FFC38BD10B5C8234FF48062024940F6E8
:10330000F63001F029FB10BD485600082DE9F04FBA
:103310008DB00746884615469946DDE9166B0024B0
:10332000002030806B49887B5A4605A901F0E0FBFC
:1033300018B1601E0DB0BDE8F08F6648807A00F0CD
:103340001400002867D09DF8140000069DF81510A1
:1033500040EA01409DF8161040EA01209DF8171040
:10336000084328609DF8180000069DF8191040EAEF
:1033700001409DF81A1040EA01209DF81B100843F7
:1033800068609DF81C0000069DF81D1040EA014091
:103390009DF81E1040EA01209DF81F100843A86008
:1033A0009DF8200000069DF8211040EA01409DF89C
:1033B000221040EA01209DF823100843E86004F140
:1033C0001000C4B2286800140190686800140290CC
:1033D000A86800140390E868001404900198404322
:1033E000029901FB0100039901FB0100049901FB13
:1033F000010ABAF1706F02DBBAF1885F05DD01F0F6
:1034000017FC00203080401E94E7B6F9000040F41D
:103410008070308000BF2F48807A00F0400020B3D9
:1034200005A9601C085C095D40EA012000B2A8F80B
:10343000000005A9E01C095C05AAA01C105C41EA7B
:10344000002000B2A8F8020005A9601D095C201D3B
:10345000105C41EA002000B2A8F80400A01DC4B22C
:10346000B6F9000040F0080030801A48408900F4A6
:10347000C07008B305A9601C085C095D40EA012022
:1034800000B2388005A9E01C095C05AAA01C105CEC
:1034900041EA002000B2788005A9601D095C201D6A
:1034A000105C41EA002000B2B880A01DC4B2B6F999
:1034B000000040F0700030800648807A00F0030081
:1034C00018B105A90819FFF749FD484600F0D7FED5
:1034D00000202FE76400002070B588B0064601A8E0
:1034E00001F08EF8BDF804000021C90341EA5045FF
:1034F000C4034448007A00F0030056F82000059009
:103500004048007A00F0040010B105984042059050
:103510003C48007AC0F3C10056F8200006903948B4
:10352000007A00F0200010B106984042069035481D
:10353000007AC0F3811056F82000079031480089C6
:1035400000F4807010B10798404207900598C117A9
:10355000A0FB042301FB043100FB0510810041EABC
:10356000927005900698C117A0FB042301FB04315B
:1035700000FB0510810041EA927006900798C11780
:10358000A0FB042301FB043100FB0510810041EA8C
:10359000927007900598000E8DF808000598000CB1
:1035A0008DF809000598000A8DF80A000598C0B248
:1035B0008DF80B000698000E8DF80C000698000C94
:1035C0008DF80D000698000A8DF80E000698C0B21E
:1035D0008DF80F000798000E8DF810000798000C6A
:1035E0008DF811000798000A8DF812000798C0B2F4
:1035F0008DF8130002AA0C214FF4257001F02CFF66
:1036000008B070BD6400002030B585B0044616A235
:1036100007CA02AB07C3C82C03DD4FF0FF3005B06B
:1036200030BDC82090FBF4F0401E85B2280A8DF80A
:103630000000E8B28DF801006A46022140F216202F
:1036400001F00AFF10B14FF0FF30E8E702AA0C21A9
:1036500040F6C12001F000FF10B14FF0FF30DEE76F
:10366000044884810020DAE7FEF2ABC4AAF1DFDF70
:10367000BBAFDFDF640000201FB504464848007A76
:1036800000F0030054F8200001904548007A00F053
:10369000040010B10198404201904148007AC0F303
:1036A000C10054F8200002903D48007A00F020004C
:1036B00010B10298404202903948007AC0F381105C
:1036C00054F8200003903648008900F4807010B14F
:1036D0000398404203903349019880FB0101800F19
:1036E00040EA810001902F49029880FB011082007E
:1036F00042EA917002902B49039880FB01108200EE
:1037000042EA917003900198000E8DF80000019834
:10371000000C8DF801000198000A8DF80200019854
:10372000C0B28DF803006A4604214FF4747001F0B2
:1037300093FE18B14FF0FF3004B010BD0298000E98
:103740008DF800000298000C8DF801000298000A24
:103750008DF802000298C0B28DF803006A46042179
:103760004FF4757001F078FE10B14FF0FF30E3E7D1
:103770000398000E8DF800000398000C8DF80100EE
:103780000398000A8DF802000398C0B28DF8030078
:103790006A4604214FF4767001F05EFECCE700002B
:1037A0006400002009E3CA0210B586B0044647A0B1
:1037B0000068039046A00068029046A0006801904F
:1037C00045A00068009004F0030003A9085C8DF890
:1037D000140003A8C4F3C101405C8DF8150003A8D0
:1037E000C4F38111405C8DF8160004F0030002A9B7
:1037F000085C8DF8100002A8C4F3C101405C8DF88C
:10380000110002A8C4F38111405C8DF8120005AAD2
:10381000032140F2264001F01FFE18B14FF0FF30A7
:1038200006B010BD04AA032140F22A4001F014FEA4
:1038300010B14FF0FF30F3E7019805900098049025
:1038400004F0040058B19DF8140040F001008DF818
:1038500014009DF8100040F001008DF8100004F0F5
:10386000200058B19DF8150040F001008DF81500BA
:103870009DF8110040F001008DF8110004F48070F3
:1038800058B19DF8160040F001008DF816009DF823
:10389000120040F001008DF8120005AA03214FF438
:1038A000886001F0D9FD10B14FF0FF30B8E704AAED
:1038B000032140F2314001F0CFFD10B14FF0FF3055
:1038C000AEE7064804810020AAE700004CCD6C005A
:1038D0000CC92C003656760026466600640000208F
:1038E000F8B505460E464FF47A7095FBF0F000FBF4
:1038F00006F4200E8DF80000200C8DF80100200A3F
:103900008DF80200E0B28DF803006A4604214FF4FE
:10391000AE7001F0A1FDF8BD38B50446052094FB5A
:10392000F0F084B220128DF80000E0B28DF80100B2
:103930006A4602214FF4AD7001F08EFD38BD38B5F6
:103940000446052094FBF0F084B220128DF80000AC
:10395000E0B28DF801006A4602214FF4AC7001F02C
:103960007BFD38BD38B504460020009004F001000E
:1039700020B19DF8000040F03000009004F00200FB
:1039800020B19DF8000040F00C00009004F004000D
:1039900020B19DF8000040F0030000906A4601212C
:1039A0004FF4A47001F058FD38BD38B50446012C21
:1039B00001DA012402E0042C00DD0424601EC0B200
:1039C00000906A46012140F24F1001F045FD38BDDC
:1039D0002DE9FC4706460F4606F0070010B1B7F583
:1039E000C86F03DD4FF0FF30BDE8FC873846FCF7B9
:1039F00042FE81465949FCF76FFC8046684600F05C
:103A0000D9FD9DF80000022806D0042816D0082809
:103A100026D0102848D135E04FF08D414046FCF7C4
:103A200029FC8146FCF745FE84B24D494046FCF72F
:103A300021FC8146FCF73DFE85B238E04FF08C4119
:103A40004046FCF717FC8146FCF733FE84B245493B
:103A50004046FCF70FFC8146FCF72BFE85B226E0C2
:103A60004FF08B414046FCF705FC8146FCF721FEF8
:103A700084B23D494046FCF7FDFB8146FCF719FE48
:103A800085B214E04FF08A414046FCF7F3FB8146D3
:103A9000FCF70FFE84B235494046FCF7EBFB81464C
:103AA000FCF707FE85B202E04FF0FF309CE700BF55
:103AB00020128DF80400E0B28DF8050028128DF870
:103AC0000600E8B28DF8070006F00100A0B101AAD7
:103AD00002214FF4EA7001F0BFFC10B14FF0FF304B
:103AE00082E70DF1060202214FF4927001F0B4FC5E
:103AF00010B14FF0FF3077E706F00200A0B101AA45
:103B000002214FF4EC7001F0A7FC10B14FF0FF3030
:103B10006AE70DF1060202214FF4947001F09CFC5B
:103B200010B14FF0FF305FE706F00400A0B101AA2A
:103B300002214FF4EE7001F08FFC10B14FF0FF3016
:103B400052E70DF1060202214FF4967001F084FC59
:103B500010B14FF0FF3047E7002045E70000484331
:103B6000000040460000C045000040450000C04441
:103B700038B50446052094FBF0F085B228128DF884
:103B80000000E8B28DF801006A4602214FF4EF70A0
:103B900001F062FC38BD38B50446052094FBF0F016
:103BA00085B228128DF80000E8B28DF801006A464F
:103BB00002214FF4ED7001F04FFC38BD70B50446A2
:103BC0000D46E0B2FEF71CFB002070BD7CB505463B
:103BD00028494968087801AB04220D21FDF7AAFAAB
:103BE00008B107207CBD9DF80700C0F301109DF8C7
:103BF000041001F0E00140EAE1008DF800009DF8BA
:103C00000700C0F381009DF8051001F0E00140EAD3
:103C1000E1008DF801009DF8070000F003009DF819
:103C2000061001F0E00140EAE1008DF802000024F6
:103C30001CE01DF8040018B9002045F8240013E02A
:103C40000D4845F8240006E055F824000B49FCF720
:103C500011FB45F824001DF80400401EC0B20DF809
:103C600004000028F0D100BF601CC4B2032CE0DBCC
:103C70000020B7E7000000207B14AE3E1D5A843FB1
:103C80002DE9F04F87B005460C46914601208DF88E
:103C9000100000208DF81100FE4A1268917CFD4A48
:103CA0005268107804AB0222FDF7EAFA20B14FF017
:103CB000FF3007B0BDE8F08FC820FFF781F9002082
:103CC0008DF81000F34A1268D17BF24A52681078DE
:103CD00004AB0122FDF7D4FA10B14FF0FF30E8E752
:103CE000EC4A12685179EB4A5268107804AB012211
:103CF000FDF7C6FA10B14FF0FF30DAE7E54A126877
:103D0000917CE44A5268107804AB0122FDF7B8FABE
:103D100010B14FF0FF30CCE7DE4A1268D17DDD4AAA
:103D20005268107804AB0122FDF7AAFA10B14FF0E7
:103D3000FF30BEE7D74A12681179D64A5268107828
:103D400004AB0122FDF79CFA10B14FF0FF30B0E751
:103D50000C208DF81000CF4A12681179CD4A5268B4
:103D6000107804AB0122FDF78BFA10B14FF0FF3051
:103D70009FE70F20FFF724F9C648806A407A8DF844
:103D80001000C44A12689178C24A5268107804AB95
:103D90000122FDF775FA10B14FF0FF3089E7BD48F9
:103DA000806A007A8DF81000BA4A12685178B94AD0
:103DB0005268107804AB0122FDF762FA10B14FF09F
:103DC000FF3076E7B9F1000F07D0B248806A807AF9
:103DD00040F0E0008DF8100004E0AE48806A807A80
:103DE0008DF81000AB4A12689179AA4A526810788F
:103DF00004AB0122FDF744FA10B14FF0FF3058E751
:103E0000B9F1000F07D0A348806AC07A40F0E00003
:103E10008DF8100003E0A048C07A8DF810009D4A8C
:103E20001268D1799B4A5268107804AB0122FDF7E1
:103E300027FA10B14FF0FF303BE7B9F1000F02D085
:103E4000C820FFF7BDF840208DF81000914A126895
:103E50001179904A5268107804AB0122FDF710FAEC
:103E600010B14FF0FF3024E778208DF81000894A18
:103E700012685179874A5268107804AB0122FDF725
:103E8000FFF910B14FF0FF3013E783498889FFF73E
:103E900097F800208DF810007E4A126851797D4A0B
:103EA0005268107804AB0122FDF7EAF910B14FF027
:103EB000FF30FEE6774A1268917A764A52681078A7
:103EC00004AB0222FDF736F910B14FF0FF30F0E6F7
:103ED0009DF811009DF8101040EA012B0C209BFB6F
:103EE000F0F0C6B20020A86068602860A060606042
:103EF0002060824665E0674A1268D17A654A526856
:103F0000107804AB0C22FDF715F910B14FF0FF301B
:103F1000CFE69DF811009DF8101040EA012000B294
:103F2000ADF808009DF813009DF8121040EA01203A
:103F300000B2ADF80A009DF815009DF8141040EA93
:103F4000012000B2ADF80C00BDF90810206808444B
:103F50002060BDF90A10606808446060BDF90C106B
:103F6000A0680844A0609DF817009DF8161040EA6C
:103F7000012000B2ADF800009DF819009DF818105E
:103F800040EA012000B2ADF802009DF81B009DF848
:103F90001A1040EA012000B2ADF80400BDF900108B
:103FA000286808442860BDF9021068680844686001
:103FB000BDF90410A8680844A8600AF1010000F0E7
:103FC000FF0AB24597DB3448D0F800C02868C11713
:103FD000090441EA10410704624600233846FCF711
:103FE000A1F832460023CDE90201FCF79BF82860D6
:103FF0002948D0F800C06868C117090441EA104197
:104000000704624600233846FCF78CF8324600234A
:10401000CDE90201FCF786F868601F48D0F800C0BF
:10402000A868C117090441EA104107046246002349
:104030003846FCF777F832460023CDE90201FCF759
:1040400071F8A8601448D0F804C02168C8170004AB
:1040500040EA11480F046246002338464146FCF707
:1040600061F832460023CDE90201FCF75BF82060DD
:104070000948D0F804C06068C117090441EA10413A
:104080000704624600233846FCF74CF8324600230A
:1040900004E000000000002068620008CDE9020191
:1040A000FCF740F860601148D0F804C0A068C11760
:1040B000090441EA10410704624600233846FCF730
:1040C00031F832460023CDE90201FCF72BF8A0605D
:1040D000A068002804DDA068A0F58030A06003E09F
:1040E000A06800F58030A0600020E2E5686200086A
:1040F0002DE9FC5F06460F4600253D4949680878D2
:1041000001AB03220D21FDF715F810B10720BDE822
:10411000FC9F9DF8040000F01F008DF804009DF83E
:10412000050000F01F008DF805009DF8060000F066
:104130001F008DF80600002456E056F8240057F8BA
:104140002410A0EB010BBBF1000F01DB594601E08D
:10415000CBF100010846FCF785FA4FF08F41009043
:10416000FCF7BAF8814601A8005D68B321490868E8
:10417000FCF781FA834659461F48FCF7ADF88046A4
:1041800004E01E494046FCF775F8804601A8005D32
:10419000401EC0B201A908550028F2D14146484648
:1041A000FCF79AF883464FF07E51FCF75DF88246A3
:1041B0002AF0004B0F4881695846FCF7C7FA12D223
:1041C0000120A04005430EE00A4801694846FCF77B
:1041D000B3FA05D3074841694846FCF7B7FA02D25B
:1041E0000120A0400543641C032CA6DB28468EE773
:1041F000000000206862000800B04C4554E3853F91
:1042000010B50446204600F00FF80346E01C00F00D
:104210000BF843EAC00083B2A01D00F005F843EAA2
:10422000801083B2184610BD014691F90020002A83
:1042300001DD00201EE091F90020002A01DA0420AF
:1042400018E091F90120002A01DD012012E091F926
:104250000120002A01DA05200CE091F90220002A51
:1042600001DD022006E091F90220002A01DA062091
:1042700000E007207047FDF71BFB00BFFEE770471B
:1042800070B50446002624F00104184890F8240074
:1042900008B1002070BD1548807A10B94FF0FF308A
:1042A000F8E71248057C807A2040104908740846D7
:1042B000007CA04202D04FF0FF3600E0002614B987
:1042C0000A48007D18B1012001F050F902E00020F9
:1042D00001F04CF93CB100F0ABFC20B1034805748F
:1042E0004FF0FF30D6E73046D4E700000000002052
:1042F0002DE9F04F99B004460D4616464FF07E5713
:104300004FF000084FF000094FF0000A12A813A95F
:1043100018AB0EAACDE9001014A916A8FEF7F6FFF7
:1043200018B1012019B0BDE8F08FBDF84C0000F4C1
:10433000807000287ED00E98FCF794F983464FF0E9
:104340009D41FBF7C9FF07460F98FCF78BF98346A1
:104350004FF09D41FBF7C0FF80461098FCF782F9B3
:1043600083464FF09D41FBF7B7FF81461198FCF75C
:1043700079F983464FF09D41FBF7AEFF82463946FF
:104380004FF08040FBF776FF49460590FBF772FF40
:10439000414607904FF04040FBF76CFF51460590B7
:1043A000FBF768FF06900799FBF70CFF8346FCF7C5
:1043B00094F9CDE90801FEF7C9FA4FF06632544B83
:1043C000CDE90A01FCF76DF8CDE90C01FCF798F98D
:1043D000206049464FF08040FBF74CFF4946029071
:1043E000FBF748FF414604904FF04040FBF742FF87
:1043F00041460290FBF73EFF03900499FBF734FF20
:1044000083464FF07E51FBF7DDFE0590FCF765F922
:10441000CDE9080139464FF08040FBF72BFF4146BC
:104420000390FBF727FF494604904FF08040FBF7CD
:1044300021FF00E068E051460390FBF71BFF834635
:104440000499FBF7BFFE0590FCF747F9CDE906019B
:10445000DDE90823FEF7C2FC4FF066322C4BCDE9B4
:104460000A01FCF71EF8CDE90C01FCF749F92860B8
:1044700051465046FBF7FEFE494604904846FBF77E
:10448000F9FE414603904046FBF7F4FE39460190A1
:104490003846FBF7EFFE00900199FBF793FE029080
:1044A0000399FBF7E1FE83460499FBF7DDFE0590D7
:1044B000FCF713F9CDE9080151463846FBF7DAFE5F
:1044C000494604904046FBF7D5FE03900499FBF75C
:1044D00079FE4FF080410590FBF7CCFE8346FCF758
:1044E000FCF8CDE90601DDE90823FEF777FC4FF083
:1044F0006632074BCDE90A01FBF7D3FFCDE90C018A
:10450000FCF7FEF8306001E002200BE7002009E72D
:1045100066A64C4070B50024FCF792FC00F024F92C
:10452000002840D1782000F02FFFC4B20CB1012048
:1045300070BD7820FFF7A4FEC4B20CB10220F7E7EB
:10454000642000F0D3FEC4B20CB10320F0E7FEF704
:10455000D1FEC4B20CB10420EAE71548FFF750FEC3
:104560000546FFF721F9C4B20CB10520E0E740F29F
:104570007310FEF767FDC4B20CB10620D8E76420C3
:10458000FFF742F8C4B20CB10720D1E700F0A4FF56
:1045900004460CB10820CBE7012000F0A3FDC4B213
:1045A0001CB10920C4E70A20C2E70020C0E70000D0
:1045B0002C00002001461148407A30B1012807D074
:1045C000022808D003280CD108E0022008700BE074
:1045D0000420087008E00820087005E0102008702A
:1045E00002E04FF0FF30704700BF0448C07C18B1B4
:1045F00008784006000E08700020F4E70000002054
:1046000001461348407A30B1012808D002280AD068
:10461000032810D10BE04FF4804008800EE041F6F3
:104620009C7008800AE04FF48050088006E04FF448
:104630000060088002E04FF0FF30704700BF044880
:10464000C07C10B10888401008800020F5E7000009
:104650000000002001460248007C087000207047DE
:104660000000002001460F48007A30B1012807D031
:10467000022809D003280FD10AE0FA2008800EE0B2
:104680004FF4FA7008800AE04FF47A70088006E070
:104690004FF4FA60088002E00020088000BF00BFED
:1046A000002070470000002001460E48007A30B11B
:1046B000012807D0022808D003280CD108E00A48B6
:1046C00008600BE00948086008E00948086005E058
:1046D0000848086002E04FF0FF30704700BF00203C
:1046E000FBE70000000000200000034300008342BD
:1046F000333303423333834101461248C07A0828DA
:1047000017D2DFE800F01704070A0D101318BC20B9
:10471000088013E06220088010E02A2008800DE065
:10472000142008800AE00A20088007E0052008809D
:1047300004E000BF00BF0020088000BF00BF0020D1
:1047400070470000000000200146064890F8240051
:1047500010B14FF0FF3070470248C0890880002038
:10476000F9E70000000000201CB580208DF8000053
:10477000654A1268917C644A526810786B4601223F
:10478000FCF77EFD10B14FF0FF301CBD6420FEF73A
:1047900017FC00208DF800005B4A1268917C5A4A91
:1047A000526810786B460122FCF76AFD10B14FF099
:1047B000FF30EAE7544A1268917D534A52681078F4
:1047C0006B460622FCF7B6FC10B14FF0FF30DCE779
:1047D0009DF80500C007400F9DF8031001F001018E
:1047E00040EA41009DF8011001F0010140EA010496
:1047F00094B1012C03D101214348C17431E0022C52
:1048000003D100214048C1742BE021463FA0FDF7B1
:1048100075FD4FF0FF30B8E73B4A1268D1783A4A4D
:10482000526810786B460122FCF784FC10B14FF0FF
:10483000FF30AAE79DF8000000F00F042CB93D48B6
:10484000FDF75CFD4FF0FF309FE7042C06D13AA046
:10485000FDF754FD01212C48C17402E000212A48D3
:10486000C174FF2128488172FF2027490872FF2167
:1048700025484172C1724FF6FF71C181FF21017459
:1048800081740121017380F82210002180F8231027
:10489000417501751630016041608160163880F8FD
:1048A000241080F82510C1844FF4FA6000F062FCF7
:1048B00010B14FF0FF3068E7022000F02BFB10B181
:1048C0004FF0FF3061E72A2000F0CEFC10B14FF02E
:1048D000FF305AE7322000F009FD10B14FF0FF30F1
:1048E00053E70020FFF7CCFC10B14FF0FF304CE74E
:1048F000002000F051FB10B14FF0FF3045E70020E1
:1049000000F042FD002040E700000020556E737566
:1049100070706F7274656420736F6674776172650E
:104920002070726F64756374207265762025642E22
:104930000A0000007069000848616C662073656EAB
:104940007369746976697479207061727420666F16
:10495000756E642E0A0000002DE9F04385B005460F
:104960000E4690469946294890F8250020B14FF010
:10497000FF3005B0BDE8F08316B94FF0FF30F8E71F
:10498000002423E0281B102801DD102000E0281B54
:1049900087B232193946204600F05EFD10B14FF063
:1049A000FF30E6E701AA3946204600F001F910B1D0
:1049B0004FF0FF30DDE730193A4601A9FBF7F5FB70
:1049C00010B16FF00100D4E7E01984B2AC42D9DB3A
:1049D0004FEA28208DF8000008F0FF008DF8010054
:1049E0000A4A1268917E094A526810786B46022280
:1049F000FCF746FC10B14FF0FF30BAE70121034845
:104A000080F82510A0F826900020B2E700000020D2
:104A100038B50446282C02DD4FF0FF3038BDDCB934
:104A2000002000F0EBFB00208DF8000007208DF83F
:104A300001002E4A1268917C2C4A526810786B460D
:104A40000222FCF71DFC10B14FF0FF30E6E7002119
:104A5000264801750020E1E7012000F0CFFB20206F
:104A60008DF80000012C06D100208DF801000520F2
:104A700000F0FAFB17E0052C06DC01208DF80100A0
:104A8000052000F0F1FB0EE0142C06DC02208DF86E
:104A900001000A2000F0E8FB05E003208DF801008A
:104AA000142000F0E1FB9DF80100072101EB8010CC
:104AB000C0B28DF801000D4A1268917C0B4A526811
:104AC00010786B460222FCF7DBFB10B14FF0FF3091
:104AD000A4E70821054881720021017301210175B5
:104AE0000020FFF7CDFB002098E700000000002029
:104AF000F8B504460F4616462C4890F8240010B925
:104B00004FF0FF30F8BD2948807A10B94FF0FF30E0
:104B1000F8E7264A1268917A244A526810786B4660
:104B20000222FCF707FB10B14FF0FF30EAE79DF8D7
:104B300001009DF8001040EA0125A54203DA00209B
:104B40003070401EDEE7194840684088B5EB600FC2
:104B500017DD164A1268517C144A526810786B4669
:104B60000122FCF7E7FA10B14FF0FF30CAE79DF8D9
:104B7000000000F0100020B100F05AF86FF00100C2
:104B8000C0E7E2B2094B1B68D97A084B5B6818781A
:104B90003B46FCF7CFFA10B14FF0FF30B2E795FB80
:104BA000F4F0401E30700020ACE700000000002050
:104BB000F8B504460D46164616B94FF0FF30F8BD5D
:104BC0001A48807A10B94FF0FF30F8E720128DF8BC
:104BD0000000E0B28DF801009DF80100284413495F
:104BE00049684989884202DD4FF0FF30E7E70F4A04
:104BF0001268117E0D4A526810786B460222FCF74B
:104C00003FFB10B14FF0FF30D9E7EAB2074B1B680A
:104C1000597D064B5B6818783346FCF78BFA10B168
:104C20004FF0FF30CBE70020C9E700000000002074
:104C300008B57048807A10B94FF0FF3008BD0020E9
:104C400000906C4A1268D17B6A4A526810786B46B1
:104C50000122FCF715FB10B14FF0FF30EEE7654A7B
:104C600012685179634A526810786B460122FCF74A
:104C700007FB10B14FF0FF30E0E75E4A1268117990
:104C80005C4A526810786B460122FCF7F9FA10B1C1
:104C90004FF0FF30D2E7574890F82400002853D057
:104CA0000C200090534A12681179524A52681078C9
:104CB0006B460122FCF7E4FA10B14FF0FF30BDE77C
:104CC0003220FEF77DF9C02000904A48807A00F03B
:104CD000010020B19DF8000040F020000090454AFE
:104CE00012681179434A526810786B460122FCF72A
:104CF000C7FA10B14FF0FF30A0E73E48407C10B13A
:104D00000220009001E0002000903A4A1268D17B16
:104D1000384A526810786B460122FCF7B1FA10B19C
:104D20004FF0FF308AE700200090324A1268517934
:104D3000304A526810786B460122FCF7A1FA00282D
:104D400055D04FF0FF3079E704200090294A1268CF
:104D50001179284A526810786B460122FCF790FAC4
:104D600010B14FF0FF3069E72248807C20B921481C
:104D7000807A00F0010010B94020009001E060202E
:104D800000901C4A126811791A4A526810786B46D2
:104D90000122FCF775FA10B14FF0FF304EE73220D8
:104DA000FEF70EF91348407C10B10120009001E09D
:104DB000002000900F4A1268D17B0E4A526810788A
:104DC0006B460122FCF75CFA10B14FF0FF3035E77B
:104DD000084A12685179074A52681078054B103317
:104DE0000122FCF74DFA10B14FF0FF3026E700200A
:104DF00024E70000000000202DE9F04F8DB083462D
:104E00000F4602200C90424890F8240020B1002068
:104E100000F068F9012600E0002603A8FFF722FC55
:104E200005A8FFF7C7FB01A8FFF766FC02A8FFF77C
:104E30008BFC374890F80AA004A8FFF70BFC00246D
:104E400007E0002239465846FEF71AFF00B902E093
:104E5000641C022CF5DB00BF022C01D1002528E0E8
:104E6000002407E0012206A909A8FEF709FF00B9FE
:104E700002E0641C022CF5DB00BF022C01D10025EE
:104E800017E006A93846FDF70DFD00F0FF0809A957
:104E90005846FFF72DF900F0FF090025B9F1000F82
:104EA00001D145F00105B8F1000F01D145F002052F
:104EB00000BFFF2016490872FF2115484172C172D8
:104EC0004FF6FF71C181FF218172017401210173CD
:104ED000BDF80C0000F04EF99DF8140000F01AF82F
:104EE000BDF8040000F0C0F9BDF8080000F0FEF9BC
:104EF000504600F049FA9DF81000FFF7C1F916B1CD
:104F0000012000F0EFF828460DB0BDE8F08F00005A
:104F10000000002038B504461E48807A10B94FF0D2
:104F2000FF3038BD022C06D0042C07D0082C08D046
:104F3000102C0CD108E0002000900BE0082000901D
:104F400008E01020009005E01820009002E04FF0EB
:104F5000FF30E6E700BF0F48407A9DF80010B0EB45
:104F6000E10F01D10020DCE70A4A1268D179094A31
:104F7000526810786B460122FCF782F910B14FF0AD
:104F8000FF30CEE79DF80000C110024841720020BA
:104F9000C7E700000000002038B504465048807C78
:104FA000A04201D1002038BD002C46D04C4A1268E6
:104FB00011794B4A526810786B460122FCF7BAF817
:104FC00010B14FF0FF30EEE79DF8000020F0200018
:104FD0000090434A12681179414A526810786B4632
:104FE0000122FCF74DF910B14FF0FF30DBE7032051
:104FF000FDF7E6FF02200090394890F8220020B12A
:105000009DF8000040F080000090354890F82300A3
:1050100020B19DF8000040F030000090304A126846
:10502000117D2F4A526810786B460122FCF728F94F
:10503000002851D04FF0FF30B5E7294A12681179A6
:10504000274A526810786B460122FCF773F810B1BA
:105050004FF0FF30A7E72248807A00F0010028B126
:105060009DF8000040F02000009004E09DF8000052
:1050700020F0200000901A4A12681179184A5268EC
:1050800010786B460122FCF7FBF810B14FF0FF30AF
:1050900089E70320FDF794FF114890F8220010B132
:1050A0008020009001E0002000900D4890F823003F
:1050B00020B19DF8000040F030000090084A1268CE
:1050C000117D074A526810786B460122FCF7D8F828
:1050D00010B14FF0FF3066E701488474002062E7AA
:1050E0000000002038B50446214890F82400A04272
:1050F00001D1002038BD24B31D4890F8250010B917
:105100004FF0FF30F6E7002000F030FA0020FFF704
:1051100043FF1749C88C00F0E9F8002000901449BB
:10512000496808786B4601222321FCF7A9F8012180
:105130000F4880F82410012000F018FAFFF778FDDE
:1051400013E0002000F012FA0948007C00900849A2
:10515000496808786B4601222321FCF791F8002169
:10516000034880F82410FFF763FD0020C2E7000029
:105170000000002038B504461F48807A10B94FF06F
:10518000FF3038BDFA2C09D0B4F5FA7F09D0B4F558
:105190007A7F09D0B4F5FA6F0CD108E000200090B6
:1051A0000BE00820009008E01020009005E0182097
:1051B000009002E04FF0FF30E3E700BF0E48007AB6
:1051C0009DF80010B0EBE10F01D10020D9E70A4AA9
:1051D00012689179084A526810786B460122FCF7F0
:1051E0004FF810B14FF0FF30CBE79DF80000C01032
:1051F000014908720020C4E70000002038B50446C9
:10520000184890F82300A04201D1002038BD14B105
:105210003020009001E0002000901248807C20B1F6
:105220009DF8000040F0020000900E4890F8220027
:1052300020B19DF8000040F080000090094A1268FB
:10524000117D084A526810786B460122FCF718F865
:1052500010B14FF0FF30D9E7024880F8234000201A
:10526000D4E700000000002038B504461E48807ACC
:1052700010B94FF0FF3038BDBC2C02DB012000908C
:1052800015E0622C02DB0220009010E02A2C02DBE9
:10529000032000900BE0142C02DB0420009006E0B9
:1052A0000A2C02DB0520009001E0062000900E4849
:1052B000C07A9DF80010884201D10020DBE70A4A3D
:1052C00012689178084A526810786B460122FBF701
:1052D000D7FF10B14FF0FF30CDE79DF80010024826
:1052E000C1720020C7E700000000002038B5044666
:1052F0002448807A10B94FF0FF3038BD214890F82B
:10530000240010B14FF0FF30F7E71E48007D50B188
:1053100034B1282C04DCE0B2FFF77AFB0020ECE784
:105320000020FFF775FB042C01DA042404E0B4F537
:105330007A7F01DD4FF47A744FF47A7090FBF4F0C9
:10534000401EC0B200900F4A126851780D4A526850
:1053500010786B460122FBF793FF10B14FF0FF303E
:10536000CBE79DF80000401C4FF47A7191FBF0F000
:1053700081B20448C1810146C9894810FFF774FF12
:105380000020BAE70000002038B5044604F07000A1
:1053900010B10120009005E014B10020009001E060
:1053A000402000902B4A1268917C2A4A526810785B
:1053B0006B460122FBF764FF20B100212548817272
:1053C000481E38BD9DF8000020F0400121480173BF
:1053D0000020009004F0400020B99DF8000040F04B
:1053E0000400009004F0200020B99DF8000040F077
:1053F0000200009004F0100020B99DF8000040F079
:105400000100009004F0080020B99DF8000040F071
:10541000380000900F4A1268D17C0E4A526810780A
:105420006B460122FBF72CFF20B100210948817255
:10543000481EC6E724B1082C02D00020FFF7DEFE8C
:1054400004488472002101753220FDF7B9FD002067
:10545000B7E7000000000020F8B504460D461646E8
:1054600016B94FF0FF30F8BD1A48807A10B94FF0E6
:10547000FF30F8E720128DF80000E0B28DF801004F
:105480009DF801002844134949684989884202DD92
:105490004FF0FF30E7E70F4A1268117E0D4A52685D
:1054A00010786B460222FBF7EBFE10B14FF0FF3095
:1054B000D9E7EAB2074B1B68597D064B5B68187841
:1054C0003346FBF7DDFE10B14FF0FF30CBE7002095
:1054D000C9E700000000002070B588B002A905A847
:1054E000FFF78AFC0446032C3ED101A8FFF7DCF845
:1054F0000598FBF7B7F806460199FAF7BBFE054693
:10550000FBF7BEF805900698FBF7ACF80646019944
:10551000FAF7B0FE0546FBF7B3F806900798FBF7DD
:10552000A1F806460199FAF7A5FE0546FBF7A8F88B
:10553000079005A8FEF7A0F86846FFF761F8BDF8E8
:105540000010029848430290BDF8001003984843A9
:105550000390BDF8001004984843049002A8FDF79A
:10556000BBFF002008B070BD0120FBE738B5044642
:10557000214890F82400C0B114B10220009001E04D
:10558000002000901C4A1268D17B1B4A5268107898
:105590006B460122FBF774FE10B14FF0FF3038BDAF
:1055A0009DF800101448417423E01348807A10B924
:1055B0004FF0FF30F3E724B10F48407C08B10020E2
:1055C000EDE714B10120009001E0002000900A4AAC
:1055D0001268D17B084A526810786B460122FBF7AB
:1055E0004FFE10B14FF0FF30D9E79DF80010024890
:1055F00041740020D3E70000000000202DE9F041B5
:1056000006460F46FBF7CCF9041E0D4618BF0120D5
:10561000284320F00040C0F17F6000F1E040C00F5F
:105620000ED0301C18BF0120384320F00040C0F1DC
:105630007F6000F1E040C00F04BF0120FCF7FAFEDC
:1056400020462946BDE8F0810000700000000024DB
:10565000000000020003000000650054FFEF00009E
:10566000FA80000B12820001030C30C30E8C8CE90F
:1056700014D5400213710F8E3883F8833000F883FD
:10568000258EF8833000F883FFFFFFFF0FFEA9D6B9
:10569000240004001A8279A10000003CFFFF0000F2
:1056A0000010000038836FA2003E0330400000006D
:1056B00002CAE3093E800000200000000000000054
:1056C0004000000060000000000C0000000C186E9C
:1056D000000006920A16C0DFFFFF0256FD8CD3774A
:1056E000FFE1C496E0C5BEAA00000000FFFF0B2B3F
:1056F00000001657000003594000000000001DFA8A
:1057000000026C1D000000003FFFDFEB003EB3B65F
:10571000000D227800002F3C00000000001942B567
:10572000000039A20000B365D90E9FC91DCF4C34CB
:1057300030000000500000003BB67AE80064000032
:1057400000C8000000000000100000001000FA92E5
:105750001000225E000D229F0001000000320000B8
:10576000FF46000063D400001000000004D60000D3
:1057700004CC000004CC00000000107200000040C7
:105780000000000000000000000600020005000705
:1057900000000000006400000000000000000005A0
:1057A0000005006400200000000000000000000070
:1057B000000040000000030000000032F8980000E4
:1057C000FF650000830F0000FF9BFC00000000004D
:1057D00000000000000000000000000000000000C9
:1057E00000000000000000000000000000000000B9
:1057F0000000000000001000400000000000000653
:105800000000B26A000200000001FB830068000093
:1058100000D9FC007CF1FF8300000000006500005F
:10582000006403E800640028000000250000000078
:1058300016A000000000100000001000002F000063
:10584000000001F40000100000280000FFFF458167
:10585000FFFFFA7200000000000000000044000595
:105860000005BAC6004778A2000000010000000051
:1058700000000600000000140000254D002F706D90
:10588000000005AE000C02D0000000000000000087
:105890000000000000000000001B000000000000ED
:1058A000000000000000000000640000000800008C
:1058B00000000000000000000000000000000000E8
:1058C00000000000000000000000000000000000D8
:1058D00000000000000000000000000000000000C8
:1058E00000000000000000000000000000000000B8
:1058F00000000000000000000000000000000000A8
:105900000000000000000000001B0000000000007C
:1059100000000000000E000E00000AC70004000096
:1059200000000032FFFFFF9C00000B2B0000000274
:105930000000000100000064FFE50000000000001E
:105940000000000000000000000000010000000056
:105950000001000000000000000180000001800044
:1059600000018000002426D3000000000000000099
:10597000000600100096003C00000000000000003F
:1059800000000000000000000C0A4E68CDCF77092F
:1059900050166759C619CE820000000000000000B2
:1059A00000000000000000000000000000000000F7
:1059B00017D7840003000000000000000000000072
:1059C000C7938F9D1E1B1C190000000000000000E3
:1059D00000000000000000000000000000000000C7
:1059E00002031885000040000000000300000003CF
:1059F0000000000000000000400000000000000067
:105A00000000000000000000000000000000000096
:105A10000000000000000000000000000000000086
:105A2000000000000000000000000000677DDF7E35
:105A300072902E554CF6E688000000000000000031
:105A40000000000000000000D8DCB4B8B0D8B9AB4A
:105A5000F3F8FAB3B7BB8E9EAEF132F51BF1B4B8D2
:105A6000B08097F1A9DFDFDFAADFDFDFF2AAC5CDC3
:105A7000C7A90CC92C97F1A989264666B28999A9AC
:105A80002D557DB0B08AA896365676F1BAA3B4B239
:105A900080C0B8A89711B28398BAA3F02408441024
:105AA0006418B2B9B49883F1A329557DBAB5B1A3EE
:105AB0008393F0002850F5B2B6AA839328547CF162
:105AC000B9A3829361BAA2DADEDFDB819AB9AEF5BF
:105AD000606870F1DABAA2DFD9BAA2FAB9A38292E9
